{
  "contractName": "Campaign",
  "abi": [
    {
      "inputs": [
        {
          "internalType": "string",
          "name": "_desc",
          "type": "string"
        },
        {
          "internalType": "uint256",
          "name": "_value",
          "type": "uint256"
        },
        {
          "internalType": "uint256",
          "name": "_amt",
          "type": "uint256"
        },
        {
          "internalType": "address",
          "name": "creator",
          "type": "address"
        }
      ],
      "stateMutability": "nonpayable",
      "type": "constructor"
    },
    {
      "inputs": [],
      "name": "desc",
      "outputs": [
        {
          "internalType": "string",
          "name": "",
          "type": "string"
        }
      ],
      "stateMutability": "view",
      "type": "function"
    },
    {
      "inputs": [],
      "name": "farmer",
      "outputs": [
        {
          "internalType": "address",
          "name": "",
          "type": "address"
        }
      ],
      "stateMutability": "view",
      "type": "function"
    },
    {
      "inputs": [],
      "name": "minAmount",
      "outputs": [
        {
          "internalType": "uint256",
          "name": "",
          "type": "uint256"
        }
      ],
      "stateMutability": "view",
      "type": "function"
    },
    {
      "inputs": [
        {
          "internalType": "uint256",
          "name": "",
          "type": "uint256"
        }
      ],
      "name": "requests",
      "outputs": [
        {
          "internalType": "string",
          "name": "description",
          "type": "string"
        },
        {
          "internalType": "uint256",
          "name": "value",
          "type": "uint256"
        },
        {
          "internalType": "address",
          "name": "recipient",
          "type": "address"
        },
        {
          "internalType": "bool",
          "name": "complete",
          "type": "bool"
        },
        {
          "internalType": "uint256",
          "name": "approvalCount",
          "type": "uint256"
        }
      ],
      "stateMutability": "view",
      "type": "function"
    },
    {
      "inputs": [],
      "name": "contribute",
      "outputs": [],
      "stateMutability": "payable",
      "type": "function"
    },
    {
      "inputs": [
        {
          "internalType": "string",
          "name": "description",
          "type": "string"
        },
        {
          "internalType": "uint256",
          "name": "value",
          "type": "uint256"
        },
        {
          "internalType": "address",
          "name": "recipient",
          "type": "address"
        }
      ],
      "name": "createRequest",
      "outputs": [],
      "stateMutability": "nonpayable",
      "type": "function"
    },
    {
      "inputs": [
        {
          "internalType": "uint256",
          "name": "index",
          "type": "uint256"
        }
      ],
      "name": "approvalRequest",
      "outputs": [],
      "stateMutability": "nonpayable",
      "type": "function"
    },
    {
      "inputs": [
        {
          "internalType": "uint256",
          "name": "index",
          "type": "uint256"
        }
      ],
      "name": "finalizeRequest",
      "outputs": [],
      "stateMutability": "nonpayable",
      "type": "function"
    },
    {
      "inputs": [
        {
          "internalType": "address",
          "name": "_logisticsSupplier",
          "type": "address"
        },
        {
          "internalType": "uint256",
          "name": "_costLogistics",
          "type": "uint256"
        }
      ],
      "name": "logistics",
      "outputs": [],
      "stateMutability": "nonpayable",
      "type": "function"
    },
    {
      "inputs": [],
      "name": "finalizeCampaign",
      "outputs": [],
      "stateMutability": "nonpayable",
      "type": "function"
    },
    {
      "inputs": [],
      "name": "delivery",
      "outputs": [],
      "stateMutability": "nonpayable",
      "type": "function"
    },
    {
      "inputs": [],
      "name": "reciver",
      "outputs": [],
      "stateMutability": "nonpayable",
      "type": "function"
    }
  ],
  "bytecode": "0x608060405260006006556000600760006101000a81548160ff0219169083151502179055506000600760016101000a81548160ff0219169083151502179055503480156200004c57600080fd5b506040516200186638038062001866833981810160405281019062000072919062000234565b80600260006101000a81548173ffffffffffffffffffffffffffffffffffffffff021916908373ffffffffffffffffffffffffffffffffffffffff16021790555082600381905550816008819055508360049080519060200190620000d9929190620000e4565b50505050506200045c565b828054620000f29062000394565b90600052602060002090601f01602090048101928262000116576000855562000162565b82601f106200013157805160ff191683800117855562000162565b8280016001018555821562000162579182015b828111156200016157825182559160200191906001019062000144565b5b50905062000171919062000175565b5090565b5b808211156200019057600081600090555060010162000176565b5090565b6000620001ab620001a584620002ed565b620002b9565b905082815260208101848484011115620001c457600080fd5b620001d18482856200035e565b509392505050565b600081519050620001ea8162000428565b92915050565b600082601f8301126200020257600080fd5b81516200021484826020860162000194565b91505092915050565b6000815190506200022e8162000442565b92915050565b600080600080608085870312156200024b57600080fd5b600085015167ffffffffffffffff8111156200026657600080fd5b6200027487828801620001f0565b945050602062000287878288016200021d565b93505060406200029a878288016200021d565b9250506060620002ad87828801620001d9565b91505092959194509250565b6000604051905081810181811067ffffffffffffffff82111715620002e357620002e2620003f9565b5b8060405250919050565b600067ffffffffffffffff8211156200030b576200030a620003f9565b5b601f19601f8301169050602081019050919050565b60006200032d8262000334565b9050919050565b600073ffffffffffffffffffffffffffffffffffffffff82169050919050565b6000819050919050565b60005b838110156200037e57808201518184015260208101905062000361565b838111156200038e576000848401525b50505050565b60006002820490506001821680620003ad57607f821691505b60208210811415620003c457620003c3620003ca565b5b50919050565b7f4e487b7100000000000000000000000000000000000000000000000000000000600052602260045260246000fd5b7f4e487b7100000000000000000000000000000000000000000000000000000000600052604160045260246000fd5b620004338162000320565b81146200043f57600080fd5b50565b6200044d8162000354565b81146200045957600080fd5b50565b6113fa806200046c6000396000f3fe6080604052600436106100a75760003560e01c80639eedaf2e116100645780639eedaf2e146101ac578063a1211bc0146101d5578063a4bbfb74146101ec578063bbab09e714610203578063d7bb99ba1461022c578063d811fcf014610236576100a7565b806303441006146100ac5780633d5a70c2146100d557806355f150f1146100ec57806381d12c58146101175780638a9cfd55146101585780639b2cb5d814610181575b600080fd5b3480156100b857600080fd5b506100d360048036038101906100ce9190610f7b565b610261565b005b3480156100e157600080fd5b506100ea6104e6565b005b3480156100f857600080fd5b5061010161057d565b60405161010e919061108b565b60405180910390f35b34801561012357600080fd5b5061013e60048036038101906101399190610f7b565b61060b565b60405161014f9594939291906110ad565b60405180910390f35b34801561016457600080fd5b5061017f600480360381019061017a9190610f14565b610706565b005b34801561018d57600080fd5b50610196610871565b6040516101a39190611127565b60405180910390f35b3480156101b857600080fd5b506101d360048036038101906101ce9190610f7b565b610877565b005b3480156101e157600080fd5b506101ea610a40565b005b3480156101f857600080fd5b50610201610b38565b005b34801561020f57600080fd5b5061022a60048036038101906102259190610ed8565b610c23565b005b610234610d04565b005b34801561024257600080fd5b5061024b610d7d565b6040516102589190611070565b60405180910390f35b600260009054906101000a900473ffffffffffffffffffffffffffffffffffffffff1673ffffffffffffffffffffffffffffffffffffffff163373ffffffffffffffffffffffffffffffffffffffff16146102bb57600080fd5b60001515600182815481106102f9577f4e487b7100000000000000000000000000000000000000000000000000000000600052603260045260246000fd5b906000526020600020906004020160020160149054906101000a900460ff1615151461032457600080fd5b60065460018281548110610361577f4e487b7100000000000000000000000000000000000000000000000000000000600052603260045260246000fd5b9060005260206000209060040201600301541461037d57600080fd5b60018082815481106103b8577f4e487b7100000000000000000000000000000000000000000000000000000000600052603260045260246000fd5b906000526020600020906004020160020160146101000a81548160ff02191690831515021790555060006001828154811061041c577f4e487b7100000000000000000000000000000000000000000000000000000000600052603260045260246000fd5b906000526020600020906004020160020160009054906101000a900473ffffffffffffffffffffffffffffffffffffffff1690508073ffffffffffffffffffffffffffffffffffffffff166108fc600184815481106104a4577f4e487b7100000000000000000000000000000000000000000000000000000000600052603260045260246000fd5b9060005260206000209060040201600101549081150290604051600060405180830381858888f193505050501580156104e1573d6000803e3d6000fd5b505050565b600960009054906101000a900473ffffffffffffffffffffffffffffffffffffffff1673ffffffffffffffffffffffffffffffffffffffff163373ffffffffffffffffffffffffffffffffffffffff161461054057600080fd5b60011515600760009054906101000a900460ff1615151461056057600080fd5b6001600760016101000a81548160ff021916908315150217905550565b6004805461058a9061127d565b80601f01602080910402602001604051908101604052809291908181526020018280546105b69061127d565b80156106035780601f106105d857610100808354040283529160200191610603565b820191906000526020600020905b8154815290600101906020018083116105e657829003601f168201915b505050505081565b6001818154811061061b57600080fd5b906000526020600020906004020160009150905080600001805461063e9061127d565b80601f016020809104026020016040519081016040528092919081815260200182805461066a9061127d565b80156106b75780601f1061068c576101008083540402835291602001916106b7565b820191906000526020600020905b81548152906001019060200180831161069a57829003601f168201915b5050505050908060010154908060020160009054906101000a900473ffffffffffffffffffffffffffffffffffffffff16908060020160149054906101000a900460ff16908060030154905085565b600260009054906101000a900473ffffffffffffffffffffffffffffffffffffffff1673ffffffffffffffffffffffffffffffffffffffff163373ffffffffffffffffffffffffffffffffffffffff161461076057600080fd5b60006040518060a001604052808581526020018481526020018373ffffffffffffffffffffffffffffffffffffffff16815260200160001515815260200160008152509050600181908060018154018082558091505060019003906000526020600020906004020160009091909190915060008201518160000190805190602001906107ed929190610da3565b506020820151816001015560408201518160020160006101000a81548173ffffffffffffffffffffffffffffffffffffffff021916908373ffffffffffffffffffffffffffffffffffffffff16021790555060608201518160020160146101000a81548160ff02191690831515021790555060808201518160030155505050505050565b60035481565b3373ffffffffffffffffffffffffffffffffffffffff16600560009054906101000a900473ffffffffffffffffffffffffffffffffffffffff1673ffffffffffffffffffffffffffffffffffffffff16146108d157600080fd5b600015156000803373ffffffffffffffffffffffffffffffffffffffff1673ffffffffffffffffffffffffffffffffffffffff168152602001908152602001600020600083815260200190815260200160002060009054906101000a900460ff16151514610974576040517f08c379a000000000000000000000000000000000000000000000000000000000815260040161096b90611107565b60405180910390fd5b60016000803373ffffffffffffffffffffffffffffffffffffffff1673ffffffffffffffffffffffffffffffffffffffff168152602001908152602001600020600083815260200190815260200160002060006101000a81548160ff02191690831515021790555060018181548110610a16577f4e487b7100000000000000000000000000000000000000000000000000000000600052603260045260246000fd5b90600052602060002090600402016003016000815480929190610a38906112af565b919050555050565b600260009054906101000a900473ffffffffffffffffffffffffffffffffffffffff1673ffffffffffffffffffffffffffffffffffffffff163373ffffffffffffffffffffffffffffffffffffffff1614610a9a57600080fd5b60011515600760019054906101000a900460ff16151514610aba57600080fd5b6000600260009054906101000a900473ffffffffffffffffffffffffffffffffffffffff1690508073ffffffffffffffffffffffffffffffffffffffff166108fc600a5447610b0991906111bf565b9081150290604051600060405180830381858888f19350505050158015610b34573d6000803e3d6000fd5b5050565b600560009054906101000a900473ffffffffffffffffffffffffffffffffffffffff1673ffffffffffffffffffffffffffffffffffffffff163373ffffffffffffffffffffffffffffffffffffffff1614610b9257600080fd5b60011515600760009054906101000a900460ff16151514610bb257600080fd5b6000600960009054906101000a900473ffffffffffffffffffffffffffffffffffffffff1690508073ffffffffffffffffffffffffffffffffffffffff166108fc479081150290604051600060405180830381858888f19350505050158015610c1f573d6000803e3d6000fd5b5050565b600560009054906101000a900473ffffffffffffffffffffffffffffffffffffffff1673ffffffffffffffffffffffffffffffffffffffff163373ffffffffffffffffffffffffffffffffffffffff1614610c7d57600080fd5b60001515600760009054906101000a900460ff16151514610c9d57600080fd5b6001600760006101000a81548160ff02191690831515021790555081600960006101000a81548173ffffffffffffffffffffffffffffffffffffffff021916908373ffffffffffffffffffffffffffffffffffffffff16021790555080600a819055505050565b600354341015610d1357600080fd5b600060065414610d2257600080fd5b60066000815480929190610d35906112af565b919050555033600560006101000a81548173ffffffffffffffffffffffffffffffffffffffff021916908373ffffffffffffffffffffffffffffffffffffffff160217905550565b600260009054906101000a900473ffffffffffffffffffffffffffffffffffffffff1681565b828054610daf9061127d565b90600052602060002090601f016020900481019282610dd15760008555610e18565b82601f10610dea57805160ff1916838001178555610e18565b82800160010185558215610e18579182015b82811115610e17578251825591602001919060010190610dfc565b5b509050610e259190610e29565b5090565b5b80821115610e42576000816000905550600101610e2a565b5090565b6000610e59610e5484611173565b611142565b905082815260208101848484011115610e7157600080fd5b610e7c84828561123b565b509392505050565b600081359050610e9381611396565b92915050565b600082601f830112610eaa57600080fd5b8135610eba848260208601610e46565b91505092915050565b600081359050610ed2816113ad565b92915050565b60008060408385031215610eeb57600080fd5b6000610ef985828601610e84565b9250506020610f0a85828601610ec3565b9150509250929050565b600080600060608486031215610f2957600080fd5b600084013567ffffffffffffffff811115610f4357600080fd5b610f4f86828701610e99565b9350506020610f6086828701610ec3565b9250506040610f7186828701610e84565b9150509250925092565b600060208284031215610f8d57600080fd5b6000610f9b84828501610ec3565b91505092915050565b610fad816111f3565b82525050565b610fbc81611205565b82525050565b6000610fcd826111a3565b610fd781856111ae565b9350610fe781856020860161124a565b610ff081611385565b840191505092915050565b60006110086024836111ae565b91507f536f7272792063616e277420617070726f766520666f72207365636f756e642060008301527f74696d65000000000000000000000000000000000000000000000000000000006020830152604082019050919050565b61106a81611231565b82525050565b60006020820190506110856000830184610fa4565b92915050565b600060208201905081810360008301526110a58184610fc2565b905092915050565b600060a08201905081810360008301526110c78188610fc2565b90506110d66020830187611061565b6110e36040830186610fa4565b6110f06060830185610fb3565b6110fd6080830184611061565b9695505050505050565b6000602082019050818103600083015261112081610ffb565b9050919050565b600060208201905061113c6000830184611061565b92915050565b6000604051905081810181811067ffffffffffffffff8211171561116957611168611356565b5b8060405250919050565b600067ffffffffffffffff82111561118e5761118d611356565b5b601f19601f8301169050602081019050919050565b600081519050919050565b600082825260208201905092915050565b60006111ca82611231565b91506111d583611231565b9250828210156111e8576111e76112f8565b5b828203905092915050565b60006111fe82611211565b9050919050565b60008115159050919050565b600073ffffffffffffffffffffffffffffffffffffffff82169050919050565b6000819050919050565b82818337600083830152505050565b60005b8381101561126857808201518184015260208101905061124d565b83811115611277576000848401525b50505050565b6000600282049050600182168061129557607f821691505b602082108114156112a9576112a8611327565b5b50919050565b60006112ba82611231565b91507fffffffffffffffffffffffffffffffffffffffffffffffffffffffffffffffff8214156112ed576112ec6112f8565b5b600182019050919050565b7f4e487b7100000000000000000000000000000000000000000000000000000000600052601160045260246000fd5b7f4e487b7100000000000000000000000000000000000000000000000000000000600052602260045260246000fd5b7f4e487b7100000000000000000000000000000000000000000000000000000000600052604160045260246000fd5b6000601f19601f8301169050919050565b61139f816111f3565b81146113aa57600080fd5b50565b6113b681611231565b81146113c157600080fd5b5056fea2646970667358221220991d885d912a446a485a4510c014c7ea71d31fca773687a13e4ff0baff63d2a664736f6c63430008000033",
  "immutableReferences": {},
  "source": "// SPDX-License-Identifier: GPL-3.0\r\npragma solidity ^0.8.0;\r\n\r\ncontract FarmerCropFactory{\r\n    address[] public deployedCampaign;\r\n    \r\n    Campaign newCampaign ;\r\n    \r\n    function createCampaign(string memory desc, uint minAmt, uint cropAmt) public {\r\n        newCampaign = new Campaign(desc,minAmt,cropAmt,msg.sender);\r\n        deployedCampaign.push(address(newCampaign));\r\n    }\r\n    function getDeployedContracts() public view returns(address[] memory){\r\n        return deployedCampaign;\r\n    }\r\n    \r\n}\r\n\r\ncontract Campaign{\r\n    \r\n    struct Request {\r\n        string description;\r\n        uint value;\r\n        address recipient;\r\n        bool complete;\r\n        uint approvalCount;\r\n    }\r\n    mapping(address =>mapping(uint => bool)) approvals;\r\n    \r\n    Request[] public requests;\r\n    address public farmer;\r\n    uint public minAmount;\r\n    string public desc;\r\n    address private approvers;\r\n    uint approverscount = 0;\r\n    bool completeCampaign = false;\r\n    bool deliveryStatus = false;\r\n    uint crop_Production;\r\n    address logisticsSupplier;\r\n    uint costLogistics;\r\n    \r\n    modifier onlyFarmer {\r\n        require(msg.sender == farmer);\r\n        _;\r\n    }\r\n    \r\n    modifier onlyApprover {\r\n        require(msg.sender == approvers);\r\n        _;\r\n    }\r\n    \r\n    constructor(string memory _desc,uint _value, uint _amt,address creator){\r\n        farmer = creator;\r\n        minAmount = _value;\r\n        crop_Production = _amt;\r\n        desc = _desc;\r\n    }\r\n    \r\n    function contribute() public payable {\r\n        require(msg.value >= minAmount);\r\n        require(approverscount == 0);\r\n        approverscount++;\r\n        approvers = msg.sender;\r\n    }\r\n    \r\n    function createRequest(string memory description,uint value,address recipient) public onlyFarmer {\r\n        \r\n        Request memory newRequest = Request({\r\n            description: description,\r\n            value: value,\r\n            recipient: recipient,\r\n            complete: false,\r\n            approvalCount: 0\r\n        });\r\n        requests.push(newRequest);\r\n        \r\n    }\r\n    \r\n    function approvalRequest(uint index) public {\r\n        require(approvers == msg.sender);\r\n        require(approvals[msg.sender][index] == false,\"Sorry can't approve for secound time\");\r\n         approvals[msg.sender][index] = true;\r\n        requests[index].approvalCount++;\r\n    }\r\n    \r\n    // Finalize the request\r\n    function finalizeRequest(uint index) onlyFarmer public {\r\n        require(requests[index].complete == false);\r\n        require(requests[index].approvalCount == approverscount);\r\n       // minAmount = minAmount - requests[index].value;\r\n        requests[index].complete = true;\r\n        address payable to = payable(requests[index].recipient);\r\n        to.transfer(requests[index].value);\r\n    }\r\n    function logistics(address _logisticsSupplier,uint _costLogistics) public onlyApprover{\r\n        require(completeCampaign == false);\r\n        completeCampaign = true;\r\n        logisticsSupplier = _logisticsSupplier;\r\n        costLogistics = _costLogistics;\r\n        //logisticsOTP = getOTP();\r\n    } \r\n    function finalizeCampaign() onlyFarmer public {\r\n         \r\n        require(deliveryStatus == true);\r\n        address payable to = payable(farmer);\r\n        to.transfer((address(this).balance - costLogistics));\r\n    }\r\n   \r\n   \r\n    modifier onlyLogistics {\r\n        require(msg.sender == logisticsSupplier);\r\n        _;\r\n    }\r\n    function delivery() onlyLogistics public {\r\n        require(completeCampaign == true);\r\n        deliveryStatus = true;\r\n    }\r\n    function reciver() onlyApprover public{\r\n        require(completeCampaign == true);\r\n        address payable to = payable(logisticsSupplier);\r\n        to.transfer(address(this).balance);\r\n    }\r\n}",
  "sourcePath": "D:\\Solidity_Projects\\DFarmStarter\\contracts\\Farming.sol",
  "compiler": {
    "name": "solc",
    "version": "0.8.0+commit.c7dfd78e.Emscripten.clang"
  },
  "schemaVersion": "3.4.3",
  "updatedAt": "2021-10-17T06:40:37.886Z",
  "devdoc": {
    "kind": "dev",
    "methods": {},
    "version": 1
  },
  "userdoc": {
    "kind": "user",
    "methods": {},
    "version": 1
  }
}